{
  "contractName": "AplusToken",
  "abi": [
    {
      "inputs": [],
      "stateMutability": "nonpayable",
      "type": "constructor"
    },
    {
      "anonymous": false,
      "inputs": [
        {
          "indexed": true,
          "internalType": "address",
          "name": "owner",
          "type": "address"
        },
        {
          "indexed": true,
          "internalType": "address",
          "name": "spender",
          "type": "address"
        },
        {
          "indexed": false,
          "internalType": "uint256",
          "name": "value",
          "type": "uint256"
        }
      ],
      "name": "Approval",
      "type": "event"
    },
    {
      "anonymous": false,
      "inputs": [
        {
          "indexed": true,
          "internalType": "address",
          "name": "from",
          "type": "address"
        },
        {
          "indexed": true,
          "internalType": "address",
          "name": "to",
          "type": "address"
        },
        {
          "indexed": false,
          "internalType": "uint256",
          "name": "value",
          "type": "uint256"
        }
      ],
      "name": "Transfer",
      "type": "event"
    },
    {
      "inputs": [
        {
          "internalType": "address",
          "name": "owner",
          "type": "address"
        },
        {
          "internalType": "address",
          "name": "spender",
          "type": "address"
        }
      ],
      "name": "allowance",
      "outputs": [
        {
          "internalType": "uint256",
          "name": "",
          "type": "uint256"
        }
      ],
      "stateMutability": "view",
      "type": "function",
      "constant": true
    },
    {
      "inputs": [
        {
          "internalType": "address",
          "name": "spender",
          "type": "address"
        },
        {
          "internalType": "uint256",
          "name": "amount",
          "type": "uint256"
        }
      ],
      "name": "approve",
      "outputs": [
        {
          "internalType": "bool",
          "name": "",
          "type": "bool"
        }
      ],
      "stateMutability": "nonpayable",
      "type": "function"
    },
    {
      "inputs": [
        {
          "internalType": "address",
          "name": "account",
          "type": "address"
        }
      ],
      "name": "balanceOf",
      "outputs": [
        {
          "internalType": "uint256",
          "name": "",
          "type": "uint256"
        }
      ],
      "stateMutability": "view",
      "type": "function",
      "constant": true
    },
    {
      "inputs": [],
      "name": "decimals",
      "outputs": [
        {
          "internalType": "uint8",
          "name": "",
          "type": "uint8"
        }
      ],
      "stateMutability": "view",
      "type": "function",
      "constant": true
    },
    {
      "inputs": [
        {
          "internalType": "address",
          "name": "spender",
          "type": "address"
        },
        {
          "internalType": "uint256",
          "name": "subtractedValue",
          "type": "uint256"
        }
      ],
      "name": "decreaseAllowance",
      "outputs": [
        {
          "internalType": "bool",
          "name": "",
          "type": "bool"
        }
      ],
      "stateMutability": "nonpayable",
      "type": "function"
    },
    {
      "inputs": [
        {
          "internalType": "address",
          "name": "spender",
          "type": "address"
        },
        {
          "internalType": "uint256",
          "name": "addedValue",
          "type": "uint256"
        }
      ],
      "name": "increaseAllowance",
      "outputs": [
        {
          "internalType": "bool",
          "name": "",
          "type": "bool"
        }
      ],
      "stateMutability": "nonpayable",
      "type": "function"
    },
    {
      "inputs": [],
      "name": "last_completed_migration",
      "outputs": [
        {
          "internalType": "uint256",
          "name": "",
          "type": "uint256"
        }
      ],
      "stateMutability": "view",
      "type": "function",
      "constant": true
    },
    {
      "inputs": [],
      "name": "name",
      "outputs": [
        {
          "internalType": "string",
          "name": "",
          "type": "string"
        }
      ],
      "stateMutability": "view",
      "type": "function",
      "constant": true
    },
    {
      "inputs": [],
      "name": "owner",
      "outputs": [
        {
          "internalType": "address",
          "name": "",
          "type": "address"
        }
      ],
      "stateMutability": "view",
      "type": "function",
      "constant": true
    },
    {
      "inputs": [],
      "name": "symbol",
      "outputs": [
        {
          "internalType": "string",
          "name": "",
          "type": "string"
        }
      ],
      "stateMutability": "view",
      "type": "function",
      "constant": true
    },
    {
      "inputs": [],
      "name": "totalSupply",
      "outputs": [
        {
          "internalType": "uint256",
          "name": "",
          "type": "uint256"
        }
      ],
      "stateMutability": "view",
      "type": "function",
      "constant": true
    },
    {
      "inputs": [
        {
          "internalType": "address",
          "name": "to",
          "type": "address"
        },
        {
          "internalType": "uint256",
          "name": "amount",
          "type": "uint256"
        }
      ],
      "name": "transfer",
      "outputs": [
        {
          "internalType": "bool",
          "name": "",
          "type": "bool"
        }
      ],
      "stateMutability": "nonpayable",
      "type": "function"
    },
    {
      "inputs": [
        {
          "internalType": "address",
          "name": "from",
          "type": "address"
        },
        {
          "internalType": "address",
          "name": "to",
          "type": "address"
        },
        {
          "internalType": "uint256",
          "name": "amount",
          "type": "uint256"
        }
      ],
      "name": "transferFrom",
      "outputs": [
        {
          "internalType": "bool",
          "name": "",
          "type": "bool"
        }
      ],
      "stateMutability": "nonpayable",
      "type": "function"
    },
    {
      "inputs": [
        {
          "internalType": "uint256",
          "name": "completed",
          "type": "uint256"
        }
      ],
      "name": "setCompleted",
      "outputs": [],
      "stateMutability": "nonpayable",
      "type": "function"
    }
  ],
  "bytecode": "0x608060405233600560006101000a81548173ffffffffffffffffffffffffffffffffffffffff021916908373ffffffffffffffffffffffffffffffffffffffff1602179055503480156200005257600080fd5b506040518060400160405280600b81526020017f416d65746120546f6b656e0000000000000000000000000000000000000000008152506040518060400160405280600581526020017f41504c55530000000000000000000000000000000000000000000000000000008152508160039080519060200190620000d7929190620002db565b508060049080519060200190620000f0929190620002db565b50505062000111336b033b2e3c9fd0803ce80000006200015860201b60201c565b33600560006101000a81548173ffffffffffffffffffffffffffffffffffffffff021916908373ffffffffffffffffffffffffffffffffffffffff16021790555062000537565b600073ffffffffffffffffffffffffffffffffffffffff168273ffffffffffffffffffffffffffffffffffffffff161415620001cb576040517f08c379a0000000000000000000000000000000000000000000000000000000008152600401620001c290620003c3565b60405180910390fd5b620001df60008383620002d160201b60201c565b8060026000828254620001f3919062000413565b92505081905550806000808473ffffffffffffffffffffffffffffffffffffffff1673ffffffffffffffffffffffffffffffffffffffff16815260200190815260200160002060008282546200024a919062000413565b925050819055508173ffffffffffffffffffffffffffffffffffffffff16600073ffffffffffffffffffffffffffffffffffffffff167fddf252ad1be2c89b69c2b068fc378daa952ba7f163c4a11628f55a4df523b3ef83604051620002b19190620003e5565b60405180910390a3620002cd60008383620002d660201b60201c565b5050565b505050565b505050565b828054620002e9906200047a565b90600052602060002090601f0160209004810192826200030d576000855562000359565b82601f106200032857805160ff191683800117855562000359565b8280016001018555821562000359579182015b82811115620003585782518255916020019190600101906200033b565b5b5090506200036891906200036c565b5090565b5b80821115620003875760008160009055506001016200036d565b5090565b60006200039a601f8362000402565b9150620003a7826200050e565b602082019050919050565b620003bd8162000470565b82525050565b60006020820190508181036000830152620003de816200038b565b9050919050565b6000602082019050620003fc6000830184620003b2565b92915050565b600082825260208201905092915050565b6000620004208262000470565b91506200042d8362000470565b9250827fffffffffffffffffffffffffffffffffffffffffffffffffffffffffffffffff03821115620004655762000464620004b0565b5b828201905092915050565b6000819050919050565b600060028204905060018216806200049357607f821691505b60208210811415620004aa57620004a9620004df565b5b50919050565b7f4e487b7100000000000000000000000000000000000000000000000000000000600052601160045260246000fd5b7f4e487b7100000000000000000000000000000000000000000000000000000000600052602260045260246000fd5b7f45524332303a206d696e7420746f20746865207a65726f206164647265737300600082015250565b61149780620005476000396000f3fe608060405234801561001057600080fd5b50600436106100ea5760003560e01c806370a082311161008c578063a457c2d711610066578063a457c2d714610263578063a9059cbb14610293578063dd62ed3e146102c3578063fdacd576146102f3576100ea565b806370a08231146101f75780638da5cb5b1461022757806395d89b4114610245576100ea565b806323b872dd116100c857806323b872dd1461015b578063313ce5671461018b57806339509351146101a9578063445df0ac146101d9576100ea565b806306fdde03146100ef578063095ea7b31461010d57806318160ddd1461013d575b600080fd5b6100f761030f565b6040516101049190610eee565b60405180910390f35b61012760048036038101906101229190610cc6565b6103a1565b6040516101349190610ed3565b60405180910390f35b6101456103c4565b6040516101529190611010565b60405180910390f35b61017560048036038101906101709190610c77565b6103ce565b6040516101829190610ed3565b60405180910390f35b6101936103fd565b6040516101a0919061102b565b60405180910390f35b6101c360048036038101906101be9190610cc6565b610406565b6040516101d09190610ed3565b60405180910390f35b6101e161043d565b6040516101ee9190611010565b60405180910390f35b610211600480360381019061020c9190610c12565b610443565b60405161021e9190611010565b60405180910390f35b61022f61048b565b60405161023c9190610eb8565b60405180910390f35b61024d6104b1565b60405161025a9190610eee565b60405180910390f35b61027d60048036038101906102789190610cc6565b610543565b60405161028a9190610ed3565b60405180910390f35b6102ad60048036038101906102a89190610cc6565b6105ba565b6040516102ba9190610ed3565b60405180910390f35b6102dd60048036038101906102d89190610c3b565b6105dd565b6040516102ea9190611010565b60405180910390f35b61030d60048036038101906103089190610d02565b610664565b005b60606003805461031e90611140565b80601f016020809104026020016040519081016040528092919081815260200182805461034a90611140565b80156103975780601f1061036c57610100808354040283529160200191610397565b820191906000526020600020905b81548152906001019060200180831161037a57829003601f168201915b5050505050905090565b6000806103ac6106fe565b90506103b9818585610706565b600191505092915050565b6000600254905090565b6000806103d96106fe565b90506103e68582856108d1565b6103f185858561095d565b60019150509392505050565b60006012905090565b6000806104116106fe565b905061043281858561042385896105dd565b61042d9190611062565b610706565b600191505092915050565b60065481565b60008060008373ffffffffffffffffffffffffffffffffffffffff1673ffffffffffffffffffffffffffffffffffffffff168152602001908152602001600020549050919050565b600560009054906101000a900473ffffffffffffffffffffffffffffffffffffffff1681565b6060600480546104c090611140565b80601f01602080910402602001604051908101604052809291908181526020018280546104ec90611140565b80156105395780601f1061050e57610100808354040283529160200191610539565b820191906000526020600020905b81548152906001019060200180831161051c57829003601f168201915b5050505050905090565b60008061054e6106fe565b9050600061055c82866105dd565b9050838110156105a1576040517f08c379a000000000000000000000000000000000000000000000000000000000815260040161059890610ff0565b60405180910390fd5b6105ae8286868403610706565b60019250505092915050565b6000806105c56106fe565b90506105d281858561095d565b600191505092915050565b6000600160008473ffffffffffffffffffffffffffffffffffffffff1673ffffffffffffffffffffffffffffffffffffffff16815260200190815260200160002060008373ffffffffffffffffffffffffffffffffffffffff1673ffffffffffffffffffffffffffffffffffffffff16815260200190815260200160002054905092915050565b600560009054906101000a900473ffffffffffffffffffffffffffffffffffffffff1673ffffffffffffffffffffffffffffffffffffffff163373ffffffffffffffffffffffffffffffffffffffff16146106f4576040517f08c379a00000000000000000000000000000000000000000000000000000000081526004016106eb90610fd0565b60405180910390fd5b8060068190555050565b600033905090565b600073ffffffffffffffffffffffffffffffffffffffff168373ffffffffffffffffffffffffffffffffffffffff161415610776576040517f08c379a000000000000000000000000000000000000000000000000000000000815260040161076d90610fb0565b60405180910390fd5b600073ffffffffffffffffffffffffffffffffffffffff168273ffffffffffffffffffffffffffffffffffffffff1614156107e6576040517f08c379a00000000000000000000000000000000000000000000000000000000081526004016107dd90610f30565b60405180910390fd5b80600160008573ffffffffffffffffffffffffffffffffffffffff1673ffffffffffffffffffffffffffffffffffffffff16815260200190815260200160002060008473ffffffffffffffffffffffffffffffffffffffff1673ffffffffffffffffffffffffffffffffffffffff168152602001908152602001600020819055508173ffffffffffffffffffffffffffffffffffffffff168373ffffffffffffffffffffffffffffffffffffffff167f8c5be1e5ebec7d5bd14f71427d1e84f3dd0314c0f7b2291e5b200ac8c7c3b925836040516108c49190611010565b60405180910390a3505050565b60006108dd84846105dd565b90507fffffffffffffffffffffffffffffffffffffffffffffffffffffffffffffffff81146109575781811015610949576040517f08c379a000000000000000000000000000000000000000000000000000000000815260040161094090610f50565b60405180910390fd5b6109568484848403610706565b5b50505050565b600073ffffffffffffffffffffffffffffffffffffffff168373ffffffffffffffffffffffffffffffffffffffff1614156109cd576040517f08c379a00000000000000000000000000000000000000000000000000000000081526004016109c490610f90565b60405180910390fd5b600073ffffffffffffffffffffffffffffffffffffffff168273ffffffffffffffffffffffffffffffffffffffff161415610a3d576040517f08c379a0000000000000000000000000000000000000000000000000000000008152600401610a3490610f10565b60405180910390fd5b610a48838383610bde565b60008060008573ffffffffffffffffffffffffffffffffffffffff1673ffffffffffffffffffffffffffffffffffffffff16815260200190815260200160002054905081811015610ace576040517f08c379a0000000000000000000000000000000000000000000000000000000008152600401610ac590610f70565b60405180910390fd5b8181036000808673ffffffffffffffffffffffffffffffffffffffff1673ffffffffffffffffffffffffffffffffffffffff16815260200190815260200160002081905550816000808573ffffffffffffffffffffffffffffffffffffffff1673ffffffffffffffffffffffffffffffffffffffff1681526020019081526020016000206000828254610b619190611062565b925050819055508273ffffffffffffffffffffffffffffffffffffffff168473ffffffffffffffffffffffffffffffffffffffff167fddf252ad1be2c89b69c2b068fc378daa952ba7f163c4a11628f55a4df523b3ef84604051610bc59190611010565b60405180910390a3610bd8848484610be3565b50505050565b505050565b505050565b600081359050610bf781611433565b92915050565b600081359050610c0c8161144a565b92915050565b600060208284031215610c2457600080fd5b6000610c3284828501610be8565b91505092915050565b60008060408385031215610c4e57600080fd5b6000610c5c85828601610be8565b9250506020610c6d85828601610be8565b9150509250929050565b600080600060608486031215610c8c57600080fd5b6000610c9a86828701610be8565b9350506020610cab86828701610be8565b9250506040610cbc86828701610bfd565b9150509250925092565b60008060408385031215610cd957600080fd5b6000610ce785828601610be8565b9250506020610cf885828601610bfd565b9150509250929050565b600060208284031215610d1457600080fd5b6000610d2284828501610bfd565b91505092915050565b610d34816110b8565b82525050565b610d43816110ca565b82525050565b6000610d5482611046565b610d5e8185611051565b9350610d6e81856020860161110d565b610d77816111d0565b840191505092915050565b6000610d8f602383611051565b9150610d9a826111e1565b604082019050919050565b6000610db2602283611051565b9150610dbd82611230565b604082019050919050565b6000610dd5601d83611051565b9150610de08261127f565b602082019050919050565b6000610df8602683611051565b9150610e03826112a8565b604082019050919050565b6000610e1b602583611051565b9150610e26826112f7565b604082019050919050565b6000610e3e602483611051565b9150610e4982611346565b604082019050919050565b6000610e61603383611051565b9150610e6c82611395565b604082019050919050565b6000610e84602583611051565b9150610e8f826113e4565b604082019050919050565b610ea3816110f6565b82525050565b610eb281611100565b82525050565b6000602082019050610ecd6000830184610d2b565b92915050565b6000602082019050610ee86000830184610d3a565b92915050565b60006020820190508181036000830152610f088184610d49565b905092915050565b60006020820190508181036000830152610f2981610d82565b9050919050565b60006020820190508181036000830152610f4981610da5565b9050919050565b60006020820190508181036000830152610f6981610dc8565b9050919050565b60006020820190508181036000830152610f8981610deb565b9050919050565b60006020820190508181036000830152610fa981610e0e565b9050919050565b60006020820190508181036000830152610fc981610e31565b9050919050565b60006020820190508181036000830152610fe981610e54565b9050919050565b6000602082019050818103600083015261100981610e77565b9050919050565b60006020820190506110256000830184610e9a565b92915050565b60006020820190506110406000830184610ea9565b92915050565b600081519050919050565b600082825260208201905092915050565b600061106d826110f6565b9150611078836110f6565b9250827fffffffffffffffffffffffffffffffffffffffffffffffffffffffffffffffff038211156110ad576110ac611172565b5b828201905092915050565b60006110c3826110d6565b9050919050565b60008115159050919050565b600073ffffffffffffffffffffffffffffffffffffffff82169050919050565b6000819050919050565b600060ff82169050919050565b60005b8381101561112b578082015181840152602081019050611110565b8381111561113a576000848401525b50505050565b6000600282049050600182168061115857607f821691505b6020821081141561116c5761116b6111a1565b5b50919050565b7f4e487b7100000000000000000000000000000000000000000000000000000000600052601160045260246000fd5b7f4e487b7100000000000000000000000000000000000000000000000000000000600052602260045260246000fd5b6000601f19601f8301169050919050565b7f45524332303a207472616e7366657220746f20746865207a65726f206164647260008201527f6573730000000000000000000000000000000000000000000000000000000000602082015250565b7f45524332303a20617070726f766520746f20746865207a65726f20616464726560008201527f7373000000000000000000000000000000000000000000000000000000000000602082015250565b7f45524332303a20696e73756666696369656e7420616c6c6f77616e6365000000600082015250565b7f45524332303a207472616e7366657220616d6f756e742065786365656473206260008201527f616c616e63650000000000000000000000000000000000000000000000000000602082015250565b7f45524332303a207472616e736665722066726f6d20746865207a65726f20616460008201527f6472657373000000000000000000000000000000000000000000000000000000602082015250565b7f45524332303a20617070726f76652066726f6d20746865207a65726f2061646460008201527f7265737300000000000000000000000000000000000000000000000000000000602082015250565b7f546869732066756e6374696f6e206973207265737472696374656420746f207460008201527f686520636f6e74726163742773206f776e657200000000000000000000000000602082015250565b7f45524332303a2064656372656173656420616c6c6f77616e63652062656c6f7760008201527f207a65726f000000000000000000000000000000000000000000000000000000602082015250565b61143c816110b8565b811461144757600080fd5b50565b611453816110f6565b811461145e57600080fd5b5056fea2646970667358221220a2749cf25b3afb5aa256e099815f3eb299f2cd0a721f55a8a50a9849bf8a110764736f6c63430008010033",
  "immutableReferences": {},
  "source": "// SPDX-License-Identifier: MIT\npragma solidity ^0.8.0;\nimport \"@openzeppelin/contracts/token/ERC20/ERC20.sol\";\n\ncontract AplusToken is ERC20 {\n    address public owner = msg.sender;\n    uint256 public last_completed_migration;\n\n    constructor() ERC20(\"Ameta Token\", \"APLUS\") {\n        _mint(msg.sender, 1*10**9*10**18);\n        owner = msg.sender;\n    }\n    \n    modifier restricted() {\n        require(\n            msg.sender == owner,\n            \"This function is restricted to the contract's owner\"\n        );\n        _;\n    }\n\n    function setCompleted(uint256 completed) public restricted {\n        last_completed_migration = completed;\n    }\n}\n",
  "sourcePath": "/Users/freestyle/Dev/AWPlus/Project/Ameta_smc/contracts/AplusToken.sol",
  "compiler": {
    "name": "solc",
    "version": "0.8.1+commit.df193b15.Emscripten.clang"
  },
  "schemaVersion": "3.4.8",
  "updatedAt": "2022-08-17T12:26:20.140Z",
  "networkType": "ethereum",
  "devdoc": {
    "kind": "dev",
    "methods": {
      "allowance(address,address)": {
        "details": "See {IERC20-allowance}."
      },
      "approve(address,uint256)": {
        "details": "See {IERC20-approve}. NOTE: If `amount` is the maximum `uint256`, the allowance is not updated on `transferFrom`. This is semantically equivalent to an infinite approval. Requirements: - `spender` cannot be the zero address."
      },
      "balanceOf(address)": {
        "details": "See {IERC20-balanceOf}."
      },
      "decimals()": {
        "details": "Returns the number of decimals used to get its user representation. For example, if `decimals` equals `2`, a balance of `505` tokens should be displayed to a user as `5.05` (`505 / 10 ** 2`). Tokens usually opt for a value of 18, imitating the relationship between Ether and Wei. This is the value {ERC20} uses, unless this function is overridden; NOTE: This information is only used for _display_ purposes: it in no way affects any of the arithmetic of the contract, including {IERC20-balanceOf} and {IERC20-transfer}."
      },
      "decreaseAllowance(address,uint256)": {
        "details": "Atomically decreases the allowance granted to `spender` by the caller. This is an alternative to {approve} that can be used as a mitigation for problems described in {IERC20-approve}. Emits an {Approval} event indicating the updated allowance. Requirements: - `spender` cannot be the zero address. - `spender` must have allowance for the caller of at least `subtractedValue`."
      },
      "increaseAllowance(address,uint256)": {
        "details": "Atomically increases the allowance granted to `spender` by the caller. This is an alternative to {approve} that can be used as a mitigation for problems described in {IERC20-approve}. Emits an {Approval} event indicating the updated allowance. Requirements: - `spender` cannot be the zero address."
      },
      "name()": {
        "details": "Returns the name of the token."
      },
      "symbol()": {
        "details": "Returns the symbol of the token, usually a shorter version of the name."
      },
      "totalSupply()": {
        "details": "See {IERC20-totalSupply}."
      },
      "transfer(address,uint256)": {
        "details": "See {IERC20-transfer}. Requirements: - `to` cannot be the zero address. - the caller must have a balance of at least `amount`."
      },
      "transferFrom(address,address,uint256)": {
        "details": "See {IERC20-transferFrom}. Emits an {Approval} event indicating the updated allowance. This is not required by the EIP. See the note at the beginning of {ERC20}. NOTE: Does not update the allowance if the current allowance is the maximum `uint256`. Requirements: - `from` and `to` cannot be the zero address. - `from` must have a balance of at least `amount`. - the caller must have allowance for ``from``'s tokens of at least `amount`."
      }
    },
    "version": 1
  },
  "userdoc": {
    "kind": "user",
    "methods": {},
    "version": 1
  }
}