{
  "contractName": "AplusToken",
  "abi": [
    {
      "inputs": [],
      "stateMutability": "nonpayable",
      "type": "constructor"
    },
    {
      "anonymous": false,
      "inputs": [
        {
          "indexed": true,
          "internalType": "address",
          "name": "owner",
          "type": "address"
        },
        {
          "indexed": true,
          "internalType": "address",
          "name": "spender",
          "type": "address"
        },
        {
          "indexed": false,
          "internalType": "uint256",
          "name": "value",
          "type": "uint256"
        }
      ],
      "name": "Approval",
      "type": "event"
    },
    {
      "anonymous": false,
      "inputs": [
        {
          "indexed": true,
          "internalType": "address",
          "name": "from",
          "type": "address"
        },
        {
          "indexed": true,
          "internalType": "address",
          "name": "to",
          "type": "address"
        },
        {
          "indexed": false,
          "internalType": "uint256",
          "name": "value",
          "type": "uint256"
        }
      ],
      "name": "Transfer",
      "type": "event"
    },
    {
      "inputs": [
        {
          "internalType": "address",
          "name": "owner",
          "type": "address"
        },
        {
          "internalType": "address",
          "name": "spender",
          "type": "address"
        }
      ],
      "name": "allowance",
      "outputs": [
        {
          "internalType": "uint256",
          "name": "",
          "type": "uint256"
        }
      ],
      "stateMutability": "view",
      "type": "function",
      "constant": true
    },
    {
      "inputs": [
        {
          "internalType": "address",
          "name": "spender",
          "type": "address"
        },
        {
          "internalType": "uint256",
          "name": "amount",
          "type": "uint256"
        }
      ],
      "name": "approve",
      "outputs": [
        {
          "internalType": "bool",
          "name": "",
          "type": "bool"
        }
      ],
      "stateMutability": "nonpayable",
      "type": "function"
    },
    {
      "inputs": [
        {
          "internalType": "address",
          "name": "account",
          "type": "address"
        }
      ],
      "name": "balanceOf",
      "outputs": [
        {
          "internalType": "uint256",
          "name": "",
          "type": "uint256"
        }
      ],
      "stateMutability": "view",
      "type": "function",
      "constant": true
    },
    {
      "inputs": [],
      "name": "decimals",
      "outputs": [
        {
          "internalType": "uint8",
          "name": "",
          "type": "uint8"
        }
      ],
      "stateMutability": "view",
      "type": "function",
      "constant": true
    },
    {
      "inputs": [
        {
          "internalType": "address",
          "name": "spender",
          "type": "address"
        },
        {
          "internalType": "uint256",
          "name": "subtractedValue",
          "type": "uint256"
        }
      ],
      "name": "decreaseAllowance",
      "outputs": [
        {
          "internalType": "bool",
          "name": "",
          "type": "bool"
        }
      ],
      "stateMutability": "nonpayable",
      "type": "function"
    },
    {
      "inputs": [
        {
          "internalType": "address",
          "name": "spender",
          "type": "address"
        },
        {
          "internalType": "uint256",
          "name": "addedValue",
          "type": "uint256"
        }
      ],
      "name": "increaseAllowance",
      "outputs": [
        {
          "internalType": "bool",
          "name": "",
          "type": "bool"
        }
      ],
      "stateMutability": "nonpayable",
      "type": "function"
    },
    {
      "inputs": [],
      "name": "last_completed_migration",
      "outputs": [
        {
          "internalType": "uint256",
          "name": "",
          "type": "uint256"
        }
      ],
      "stateMutability": "view",
      "type": "function",
      "constant": true
    },
    {
      "inputs": [],
      "name": "name",
      "outputs": [
        {
          "internalType": "string",
          "name": "",
          "type": "string"
        }
      ],
      "stateMutability": "view",
      "type": "function",
      "constant": true
    },
    {
      "inputs": [],
      "name": "owner",
      "outputs": [
        {
          "internalType": "address",
          "name": "",
          "type": "address"
        }
      ],
      "stateMutability": "view",
      "type": "function",
      "constant": true
    },
    {
      "inputs": [],
      "name": "symbol",
      "outputs": [
        {
          "internalType": "string",
          "name": "",
          "type": "string"
        }
      ],
      "stateMutability": "view",
      "type": "function",
      "constant": true
    },
    {
      "inputs": [],
      "name": "totalSupply",
      "outputs": [
        {
          "internalType": "uint256",
          "name": "",
          "type": "uint256"
        }
      ],
      "stateMutability": "view",
      "type": "function",
      "constant": true
    },
    {
      "inputs": [
        {
          "internalType": "address",
          "name": "to",
          "type": "address"
        },
        {
          "internalType": "uint256",
          "name": "amount",
          "type": "uint256"
        }
      ],
      "name": "transfer",
      "outputs": [
        {
          "internalType": "bool",
          "name": "",
          "type": "bool"
        }
      ],
      "stateMutability": "nonpayable",
      "type": "function"
    },
    {
      "inputs": [
        {
          "internalType": "address",
          "name": "from",
          "type": "address"
        },
        {
          "internalType": "address",
          "name": "to",
          "type": "address"
        },
        {
          "internalType": "uint256",
          "name": "amount",
          "type": "uint256"
        }
      ],
      "name": "transferFrom",
      "outputs": [
        {
          "internalType": "bool",
          "name": "",
          "type": "bool"
        }
      ],
      "stateMutability": "nonpayable",
      "type": "function"
    },
    {
      "inputs": [
        {
          "internalType": "address",
          "name": "to",
          "type": "address"
        },
        {
          "internalType": "uint256",
          "name": "amount",
          "type": "uint256"
        }
      ],
      "name": "mint",
      "outputs": [],
      "stateMutability": "nonpayable",
      "type": "function"
    },
    {
      "inputs": [
        {
          "internalType": "uint256",
          "name": "amount",
          "type": "uint256"
        }
      ],
      "name": "burn",
      "outputs": [],
      "stateMutability": "nonpayable",
      "type": "function"
    },
    {
      "inputs": [
        {
          "internalType": "uint256",
          "name": "completed",
          "type": "uint256"
        }
      ],
      "name": "setCompleted",
      "outputs": [],
      "stateMutability": "nonpayable",
      "type": "function"
    }
  ],
  "bytecode": "0x608060405233600560006101000a81548173ffffffffffffffffffffffffffffffffffffffff021916908373ffffffffffffffffffffffffffffffffffffffff1602179055503480156200005257600080fd5b506040518060400160405280600b81526020017f41504c555320546f6b656e0000000000000000000000000000000000000000008152506040518060400160405280600581526020017f41504c55530000000000000000000000000000000000000000000000000000008152508160039080519060200190620000d7929190620002d2565b508060049080519060200190620000f0929190620002d2565b50505062000108336202bf206200014f60201b60201c565b33600560006101000a81548173ffffffffffffffffffffffffffffffffffffffff021916908373ffffffffffffffffffffffffffffffffffffffff1602179055506200052e565b600073ffffffffffffffffffffffffffffffffffffffff168273ffffffffffffffffffffffffffffffffffffffff161415620001c2576040517f08c379a0000000000000000000000000000000000000000000000000000000008152600401620001b990620003ba565b60405180910390fd5b620001d660008383620002c860201b60201c565b8060026000828254620001ea91906200040a565b92505081905550806000808473ffffffffffffffffffffffffffffffffffffffff1673ffffffffffffffffffffffffffffffffffffffff16815260200190815260200160002060008282546200024191906200040a565b925050819055508173ffffffffffffffffffffffffffffffffffffffff16600073ffffffffffffffffffffffffffffffffffffffff167fddf252ad1be2c89b69c2b068fc378daa952ba7f163c4a11628f55a4df523b3ef83604051620002a89190620003dc565b60405180910390a3620002c460008383620002cd60201b60201c565b5050565b505050565b505050565b828054620002e09062000471565b90600052602060002090601f01602090048101928262000304576000855562000350565b82601f106200031f57805160ff191683800117855562000350565b8280016001018555821562000350579182015b828111156200034f57825182559160200191906001019062000332565b5b5090506200035f919062000363565b5090565b5b808211156200037e57600081600090555060010162000364565b5090565b600062000391601f83620003f9565b91506200039e8262000505565b602082019050919050565b620003b48162000467565b82525050565b60006020820190508181036000830152620003d58162000382565b9050919050565b6000602082019050620003f36000830184620003a9565b92915050565b600082825260208201905092915050565b6000620004178262000467565b9150620004248362000467565b9250827fffffffffffffffffffffffffffffffffffffffffffffffffffffffffffffffff038211156200045c576200045b620004a7565b5b828201905092915050565b6000819050919050565b600060028204905060018216806200048a57607f821691505b60208210811415620004a157620004a0620004d6565b5b50919050565b7f4e487b7100000000000000000000000000000000000000000000000000000000600052601160045260246000fd5b7f4e487b7100000000000000000000000000000000000000000000000000000000600052602260045260246000fd5b7f45524332303a206d696e7420746f20746865207a65726f206164647265737300600082015250565b611af7806200053e6000396000f3fe608060405234801561001057600080fd5b50600436106101005760003560e01c8063445df0ac11610097578063a457c2d711610066578063a457c2d7146102b1578063a9059cbb146102e1578063dd62ed3e14610311578063fdacd5761461034157610100565b8063445df0ac1461022757806370a08231146102455780638da5cb5b1461027557806395d89b411461029357610100565b8063313ce567116100d3578063313ce567146101a157806339509351146101bf57806340c10f19146101ef57806342966c681461020b57610100565b806306fdde0314610105578063095ea7b31461012357806318160ddd1461015357806323b872dd14610171575b600080fd5b61010d61035d565b60405161011a91906113aa565b60405180910390f35b61013d600480360381019061013891906110f6565b6103ef565b60405161014a919061138f565b60405180910390f35b61015b610412565b604051610168919061154c565b60405180910390f35b61018b600480360381019061018691906110a7565b61041c565b604051610198919061138f565b60405180910390f35b6101a961044b565b6040516101b69190611567565b60405180910390f35b6101d960048036038101906101d491906110f6565b610454565b6040516101e6919061138f565b60405180910390f35b610209600480360381019061020491906110f6565b61048b565b005b61022560048036038101906102209190611132565b610529565b005b61022f610536565b60405161023c919061154c565b60405180910390f35b61025f600480360381019061025a9190611042565b61053c565b60405161026c919061154c565b60405180910390f35b61027d610584565b60405161028a9190611374565b60405180910390f35b61029b6105aa565b6040516102a891906113aa565b60405180910390f35b6102cb60048036038101906102c691906110f6565b61063c565b6040516102d8919061138f565b60405180910390f35b6102fb60048036038101906102f691906110f6565b6106b3565b604051610308919061138f565b60405180910390f35b61032b6004803603810190610326919061106b565b6106d6565b604051610338919061154c565b60405180910390f35b61035b60048036038101906103569190611132565b61075d565b005b60606003805461036c906116b0565b80601f0160208091040260200160405190810160405280929190818152602001828054610398906116b0565b80156103e55780601f106103ba576101008083540402835291602001916103e5565b820191906000526020600020905b8154815290600101906020018083116103c857829003601f168201915b5050505050905090565b6000806103fa6107f7565b90506104078185856107ff565b600191505092915050565b6000600254905090565b6000806104276107f7565b90506104348582856109ca565b61043f858585610a56565b60019150509392505050565b60006012905090565b60008061045f6107f7565b905061048081858561047185896106d6565b61047b919061159e565b6107ff565b600191505092915050565b600560009054906101000a900473ffffffffffffffffffffffffffffffffffffffff1673ffffffffffffffffffffffffffffffffffffffff163373ffffffffffffffffffffffffffffffffffffffff161461051b576040517f08c379a00000000000000000000000000000000000000000000000000000000081526004016105129061146c565b60405180910390fd5b6105258282610cd7565b5050565b6105333382610e37565b50565b60065481565b60008060008373ffffffffffffffffffffffffffffffffffffffff1673ffffffffffffffffffffffffffffffffffffffff168152602001908152602001600020549050919050565b600560009054906101000a900473ffffffffffffffffffffffffffffffffffffffff1681565b6060600480546105b9906116b0565b80601f01602080910402602001604051908101604052809291908181526020018280546105e5906116b0565b80156106325780601f1061060757610100808354040283529160200191610632565b820191906000526020600020905b81548152906001019060200180831161061557829003601f168201915b5050505050905090565b6000806106476107f7565b9050600061065582866106d6565b90508381101561069a576040517f08c379a00000000000000000000000000000000000000000000000000000000081526004016106919061150c565b60405180910390fd5b6106a782868684036107ff565b60019250505092915050565b6000806106be6107f7565b90506106cb818585610a56565b600191505092915050565b6000600160008473ffffffffffffffffffffffffffffffffffffffff1673ffffffffffffffffffffffffffffffffffffffff16815260200190815260200160002060008373ffffffffffffffffffffffffffffffffffffffff1673ffffffffffffffffffffffffffffffffffffffff16815260200190815260200160002054905092915050565b600560009054906101000a900473ffffffffffffffffffffffffffffffffffffffff1673ffffffffffffffffffffffffffffffffffffffff163373ffffffffffffffffffffffffffffffffffffffff16146107ed576040517f08c379a00000000000000000000000000000000000000000000000000000000081526004016107e4906114ec565b60405180910390fd5b8060068190555050565b600033905090565b600073ffffffffffffffffffffffffffffffffffffffff168373ffffffffffffffffffffffffffffffffffffffff16141561086f576040517f08c379a0000000000000000000000000000000000000000000000000000000008152600401610866906114cc565b60405180910390fd5b600073ffffffffffffffffffffffffffffffffffffffff168273ffffffffffffffffffffffffffffffffffffffff1614156108df576040517f08c379a00000000000000000000000000000000000000000000000000000000081526004016108d69061140c565b60405180910390fd5b80600160008573ffffffffffffffffffffffffffffffffffffffff1673ffffffffffffffffffffffffffffffffffffffff16815260200190815260200160002060008473ffffffffffffffffffffffffffffffffffffffff1673ffffffffffffffffffffffffffffffffffffffff168152602001908152602001600020819055508173ffffffffffffffffffffffffffffffffffffffff168373ffffffffffffffffffffffffffffffffffffffff167f8c5be1e5ebec7d5bd14f71427d1e84f3dd0314c0f7b2291e5b200ac8c7c3b925836040516109bd919061154c565b60405180910390a3505050565b60006109d684846106d6565b90507fffffffffffffffffffffffffffffffffffffffffffffffffffffffffffffffff8114610a505781811015610a42576040517f08c379a0000000000000000000000000000000000000000000000000000000008152600401610a399061142c565b60405180910390fd5b610a4f84848484036107ff565b5b50505050565b600073ffffffffffffffffffffffffffffffffffffffff168373ffffffffffffffffffffffffffffffffffffffff161415610ac6576040517f08c379a0000000000000000000000000000000000000000000000000000000008152600401610abd906114ac565b60405180910390fd5b600073ffffffffffffffffffffffffffffffffffffffff168273ffffffffffffffffffffffffffffffffffffffff161415610b36576040517f08c379a0000000000000000000000000000000000000000000000000000000008152600401610b2d906113cc565b60405180910390fd5b610b4183838361100e565b60008060008573ffffffffffffffffffffffffffffffffffffffff1673ffffffffffffffffffffffffffffffffffffffff16815260200190815260200160002054905081811015610bc7576040517f08c379a0000000000000000000000000000000000000000000000000000000008152600401610bbe9061144c565b60405180910390fd5b8181036000808673ffffffffffffffffffffffffffffffffffffffff1673ffffffffffffffffffffffffffffffffffffffff16815260200190815260200160002081905550816000808573ffffffffffffffffffffffffffffffffffffffff1673ffffffffffffffffffffffffffffffffffffffff1681526020019081526020016000206000828254610c5a919061159e565b925050819055508273ffffffffffffffffffffffffffffffffffffffff168473ffffffffffffffffffffffffffffffffffffffff167fddf252ad1be2c89b69c2b068fc378daa952ba7f163c4a11628f55a4df523b3ef84604051610cbe919061154c565b60405180910390a3610cd1848484611013565b50505050565b600073ffffffffffffffffffffffffffffffffffffffff168273ffffffffffffffffffffffffffffffffffffffff161415610d47576040517f08c379a0000000000000000000000000000000000000000000000000000000008152600401610d3e9061152c565b60405180910390fd5b610d536000838361100e565b8060026000828254610d65919061159e565b92505081905550806000808473ffffffffffffffffffffffffffffffffffffffff1673ffffffffffffffffffffffffffffffffffffffff1681526020019081526020016000206000828254610dba919061159e565b925050819055508173ffffffffffffffffffffffffffffffffffffffff16600073ffffffffffffffffffffffffffffffffffffffff167fddf252ad1be2c89b69c2b068fc378daa952ba7f163c4a11628f55a4df523b3ef83604051610e1f919061154c565b60405180910390a3610e3360008383611013565b5050565b600073ffffffffffffffffffffffffffffffffffffffff168273ffffffffffffffffffffffffffffffffffffffff161415610ea7576040517f08c379a0000000000000000000000000000000000000000000000000000000008152600401610e9e9061148c565b60405180910390fd5b610eb38260008361100e565b60008060008473ffffffffffffffffffffffffffffffffffffffff1673ffffffffffffffffffffffffffffffffffffffff16815260200190815260200160002054905081811015610f39576040517f08c379a0000000000000000000000000000000000000000000000000000000008152600401610f30906113ec565b60405180910390fd5b8181036000808573ffffffffffffffffffffffffffffffffffffffff1673ffffffffffffffffffffffffffffffffffffffff168152602001908152602001600020819055508160026000828254610f9091906115f4565b92505081905550600073ffffffffffffffffffffffffffffffffffffffff168373ffffffffffffffffffffffffffffffffffffffff167fddf252ad1be2c89b69c2b068fc378daa952ba7f163c4a11628f55a4df523b3ef84604051610ff5919061154c565b60405180910390a361100983600084611013565b505050565b505050565b505050565b60008135905061102781611a93565b92915050565b60008135905061103c81611aaa565b92915050565b60006020828403121561105457600080fd5b600061106284828501611018565b91505092915050565b6000806040838503121561107e57600080fd5b600061108c85828601611018565b925050602061109d85828601611018565b9150509250929050565b6000806000606084860312156110bc57600080fd5b60006110ca86828701611018565b93505060206110db86828701611018565b92505060406110ec8682870161102d565b9150509250925092565b6000806040838503121561110957600080fd5b600061111785828601611018565b92505060206111288582860161102d565b9150509250929050565b60006020828403121561114457600080fd5b60006111528482850161102d565b91505092915050565b61116481611628565b82525050565b6111738161163a565b82525050565b600061118482611582565b61118e818561158d565b935061119e81856020860161167d565b6111a781611740565b840191505092915050565b60006111bf60238361158d565b91506111ca82611751565b604082019050919050565b60006111e260228361158d565b91506111ed826117a0565b604082019050919050565b600061120560228361158d565b9150611210826117ef565b604082019050919050565b6000611228601d8361158d565b91506112338261183e565b602082019050919050565b600061124b60268361158d565b915061125682611867565b604082019050919050565b600061126e600a8361158d565b9150611279826118b6565b602082019050919050565b600061129160218361158d565b915061129c826118df565b604082019050919050565b60006112b460258361158d565b91506112bf8261192e565b604082019050919050565b60006112d760248361158d565b91506112e28261197d565b604082019050919050565b60006112fa60338361158d565b9150611305826119cc565b604082019050919050565b600061131d60258361158d565b915061132882611a1b565b604082019050919050565b6000611340601f8361158d565b915061134b82611a6a565b602082019050919050565b61135f81611666565b82525050565b61136e81611670565b82525050565b6000602082019050611389600083018461115b565b92915050565b60006020820190506113a4600083018461116a565b92915050565b600060208201905081810360008301526113c48184611179565b905092915050565b600060208201905081810360008301526113e5816111b2565b9050919050565b60006020820190508181036000830152611405816111d5565b9050919050565b60006020820190508181036000830152611425816111f8565b9050919050565b600060208201905081810360008301526114458161121b565b9050919050565b600060208201905081810360008301526114658161123e565b9050919050565b6000602082019050818103600083015261148581611261565b9050919050565b600060208201905081810360008301526114a581611284565b9050919050565b600060208201905081810360008301526114c5816112a7565b9050919050565b600060208201905081810360008301526114e5816112ca565b9050919050565b60006020820190508181036000830152611505816112ed565b9050919050565b6000602082019050818103600083015261152581611310565b9050919050565b6000602082019050818103600083015261154581611333565b9050919050565b60006020820190506115616000830184611356565b92915050565b600060208201905061157c6000830184611365565b92915050565b600081519050919050565b600082825260208201905092915050565b60006115a982611666565b91506115b483611666565b9250827fffffffffffffffffffffffffffffffffffffffffffffffffffffffffffffffff038211156115e9576115e86116e2565b5b828201905092915050565b60006115ff82611666565b915061160a83611666565b92508282101561161d5761161c6116e2565b5b828203905092915050565b600061163382611646565b9050919050565b60008115159050919050565b600073ffffffffffffffffffffffffffffffffffffffff82169050919050565b6000819050919050565b600060ff82169050919050565b60005b8381101561169b578082015181840152602081019050611680565b838111156116aa576000848401525b50505050565b600060028204905060018216806116c857607f821691505b602082108114156116dc576116db611711565b5b50919050565b7f4e487b7100000000000000000000000000000000000000000000000000000000600052601160045260246000fd5b7f4e487b7100000000000000000000000000000000000000000000000000000000600052602260045260246000fd5b6000601f19601f8301169050919050565b7f45524332303a207472616e7366657220746f20746865207a65726f206164647260008201527f6573730000000000000000000000000000000000000000000000000000000000602082015250565b7f45524332303a206275726e20616d6f756e7420657863656564732062616c616e60008201527f6365000000000000000000000000000000000000000000000000000000000000602082015250565b7f45524332303a20617070726f766520746f20746865207a65726f20616464726560008201527f7373000000000000000000000000000000000000000000000000000000000000602082015250565b7f45524332303a20696e73756666696369656e7420616c6c6f77616e6365000000600082015250565b7f45524332303a207472616e7366657220616d6f756e742065786365656473206260008201527f616c616e63650000000000000000000000000000000000000000000000000000602082015250565b7f4f6e6c792061646d696e00000000000000000000000000000000000000000000600082015250565b7f45524332303a206275726e2066726f6d20746865207a65726f2061646472657360008201527f7300000000000000000000000000000000000000000000000000000000000000602082015250565b7f45524332303a207472616e736665722066726f6d20746865207a65726f20616460008201527f6472657373000000000000000000000000000000000000000000000000000000602082015250565b7f45524332303a20617070726f76652066726f6d20746865207a65726f2061646460008201527f7265737300000000000000000000000000000000000000000000000000000000602082015250565b7f546869732066756e6374696f6e206973207265737472696374656420746f207460008201527f686520636f6e74726163742773206f776e657200000000000000000000000000602082015250565b7f45524332303a2064656372656173656420616c6c6f77616e63652062656c6f7760008201527f207a65726f000000000000000000000000000000000000000000000000000000602082015250565b7f45524332303a206d696e7420746f20746865207a65726f206164647265737300600082015250565b611a9c81611628565b8114611aa757600080fd5b50565b611ab381611666565b8114611abe57600080fd5b5056fea2646970667358221220b28e48b0838da2c17f05be4724ad18d21852767678fb0d170977e5b3e865b0b064736f6c63430008010033",
  "immutableReferences": {},
  "source": "// SPDX-License-Identifier: MIT\npragma solidity ^0.8.0;\nimport \"@openzeppelin/contracts/token/ERC20/ERC20.sol\";\n\ncontract AplusToken is ERC20 {\n    address public owner = msg.sender;\n    uint256 public last_completed_migration;\n\n    constructor() ERC20(\"APLUS Token\", \"APLUS\") {\n        _mint(msg.sender, 1000 * 10 * 18);\n        owner = msg.sender;\n    }\n\n    function mint(address to, uint256 amount) external {\n        require(msg.sender == owner, \"Only admin\");\n        _mint(to, amount);\n    }\n\n    function burn(uint256 amount) external {\n        _burn(msg.sender, amount);\n    }\n\n    modifier restricted() {\n        require(\n            msg.sender == owner,\n            \"This function is restricted to the contract's owner\"\n        );\n        _;\n    }\n\n    function setCompleted(uint256 completed) public restricted {\n        last_completed_migration = completed;\n    }\n}\n",
  "sourcePath": "/Users/freestyle/Dev/AWPlus/Project/Ameta_smc/contracts/AplusToken.sol",
  "compiler": {
    "name": "solc",
    "version": "0.8.1+commit.df193b15.Emscripten.clang"
  },
  "schemaVersion": "3.4.8",
  "updatedAt": "2022-08-11T06:51:30.000Z",
  "networkType": "ethereum",
  "devdoc": {
    "kind": "dev",
    "methods": {
      "allowance(address,address)": {
        "details": "See {IERC20-allowance}."
      },
      "approve(address,uint256)": {
        "details": "See {IERC20-approve}. NOTE: If `amount` is the maximum `uint256`, the allowance is not updated on `transferFrom`. This is semantically equivalent to an infinite approval. Requirements: - `spender` cannot be the zero address."
      },
      "balanceOf(address)": {
        "details": "See {IERC20-balanceOf}."
      },
      "decimals()": {
        "details": "Returns the number of decimals used to get its user representation. For example, if `decimals` equals `2`, a balance of `505` tokens should be displayed to a user as `5.05` (`505 / 10 ** 2`). Tokens usually opt for a value of 18, imitating the relationship between Ether and Wei. This is the value {ERC20} uses, unless this function is overridden; NOTE: This information is only used for _display_ purposes: it in no way affects any of the arithmetic of the contract, including {IERC20-balanceOf} and {IERC20-transfer}."
      },
      "decreaseAllowance(address,uint256)": {
        "details": "Atomically decreases the allowance granted to `spender` by the caller. This is an alternative to {approve} that can be used as a mitigation for problems described in {IERC20-approve}. Emits an {Approval} event indicating the updated allowance. Requirements: - `spender` cannot be the zero address. - `spender` must have allowance for the caller of at least `subtractedValue`."
      },
      "increaseAllowance(address,uint256)": {
        "details": "Atomically increases the allowance granted to `spender` by the caller. This is an alternative to {approve} that can be used as a mitigation for problems described in {IERC20-approve}. Emits an {Approval} event indicating the updated allowance. Requirements: - `spender` cannot be the zero address."
      },
      "name()": {
        "details": "Returns the name of the token."
      },
      "symbol()": {
        "details": "Returns the symbol of the token, usually a shorter version of the name."
      },
      "totalSupply()": {
        "details": "See {IERC20-totalSupply}."
      },
      "transfer(address,uint256)": {
        "details": "See {IERC20-transfer}. Requirements: - `to` cannot be the zero address. - the caller must have a balance of at least `amount`."
      },
      "transferFrom(address,address,uint256)": {
        "details": "See {IERC20-transferFrom}. Emits an {Approval} event indicating the updated allowance. This is not required by the EIP. See the note at the beginning of {ERC20}. NOTE: Does not update the allowance if the current allowance is the maximum `uint256`. Requirements: - `from` and `to` cannot be the zero address. - `from` must have a balance of at least `amount`. - the caller must have allowance for ``from``'s tokens of at least `amount`."
      }
    },
    "version": 1
  },
  "userdoc": {
    "kind": "user",
    "methods": {},
    "version": 1
  }
}