{
  "contractName": "NFTItem",
  "abi": [
    {
      "inputs": [],
      "stateMutability": "nonpayable",
      "type": "constructor"
    },
    {
      "anonymous": false,
      "inputs": [
        {
          "indexed": true,
          "internalType": "address",
          "name": "owner",
          "type": "address"
        },
        {
          "indexed": true,
          "internalType": "address",
          "name": "approved",
          "type": "address"
        },
        {
          "indexed": true,
          "internalType": "uint256",
          "name": "tokenId",
          "type": "uint256"
        }
      ],
      "name": "Approval",
      "type": "event"
    },
    {
      "anonymous": false,
      "inputs": [
        {
          "indexed": true,
          "internalType": "address",
          "name": "owner",
          "type": "address"
        },
        {
          "indexed": true,
          "internalType": "address",
          "name": "operator",
          "type": "address"
        },
        {
          "indexed": false,
          "internalType": "bool",
          "name": "approved",
          "type": "bool"
        }
      ],
      "name": "ApprovalForAll",
      "type": "event"
    },
    {
      "anonymous": false,
      "inputs": [
        {
          "indexed": true,
          "internalType": "address",
          "name": "from",
          "type": "address"
        },
        {
          "indexed": true,
          "internalType": "address",
          "name": "to",
          "type": "address"
        },
        {
          "indexed": true,
          "internalType": "uint256",
          "name": "tokenId",
          "type": "uint256"
        }
      ],
      "name": "Transfer",
      "type": "event"
    },
    {
      "inputs": [],
      "name": "TOTAL_SUPPLY",
      "outputs": [
        {
          "internalType": "uint256",
          "name": "",
          "type": "uint256"
        }
      ],
      "stateMutability": "view",
      "type": "function"
    },
    {
      "inputs": [
        {
          "internalType": "address",
          "name": "to",
          "type": "address"
        },
        {
          "internalType": "uint256",
          "name": "tokenId",
          "type": "uint256"
        }
      ],
      "name": "approve",
      "outputs": [],
      "stateMutability": "nonpayable",
      "type": "function"
    },
    {
      "inputs": [
        {
          "internalType": "address",
          "name": "owner",
          "type": "address"
        }
      ],
      "name": "balanceOf",
      "outputs": [
        {
          "internalType": "uint256",
          "name": "",
          "type": "uint256"
        }
      ],
      "stateMutability": "view",
      "type": "function"
    },
    {
      "inputs": [
        {
          "internalType": "uint256",
          "name": "tokenId",
          "type": "uint256"
        }
      ],
      "name": "getApproved",
      "outputs": [
        {
          "internalType": "address",
          "name": "",
          "type": "address"
        }
      ],
      "stateMutability": "view",
      "type": "function"
    },
    {
      "inputs": [
        {
          "internalType": "address",
          "name": "owner",
          "type": "address"
        },
        {
          "internalType": "address",
          "name": "operator",
          "type": "address"
        }
      ],
      "name": "isApprovedForAll",
      "outputs": [
        {
          "internalType": "bool",
          "name": "",
          "type": "bool"
        }
      ],
      "stateMutability": "view",
      "type": "function"
    },
    {
      "inputs": [],
      "name": "name",
      "outputs": [
        {
          "internalType": "string",
          "name": "",
          "type": "string"
        }
      ],
      "stateMutability": "view",
      "type": "function"
    },
    {
      "inputs": [
        {
          "internalType": "uint256",
          "name": "tokenId",
          "type": "uint256"
        }
      ],
      "name": "ownerOf",
      "outputs": [
        {
          "internalType": "address",
          "name": "",
          "type": "address"
        }
      ],
      "stateMutability": "view",
      "type": "function"
    },
    {
      "inputs": [
        {
          "internalType": "address",
          "name": "from",
          "type": "address"
        },
        {
          "internalType": "address",
          "name": "to",
          "type": "address"
        },
        {
          "internalType": "uint256",
          "name": "tokenId",
          "type": "uint256"
        }
      ],
      "name": "safeTransferFrom",
      "outputs": [],
      "stateMutability": "nonpayable",
      "type": "function"
    },
    {
      "inputs": [
        {
          "internalType": "address",
          "name": "from",
          "type": "address"
        },
        {
          "internalType": "address",
          "name": "to",
          "type": "address"
        },
        {
          "internalType": "uint256",
          "name": "tokenId",
          "type": "uint256"
        },
        {
          "internalType": "bytes",
          "name": "data",
          "type": "bytes"
        }
      ],
      "name": "safeTransferFrom",
      "outputs": [],
      "stateMutability": "nonpayable",
      "type": "function"
    },
    {
      "inputs": [
        {
          "internalType": "address",
          "name": "operator",
          "type": "address"
        },
        {
          "internalType": "bool",
          "name": "approved",
          "type": "bool"
        }
      ],
      "name": "setApprovalForAll",
      "outputs": [],
      "stateMutability": "nonpayable",
      "type": "function"
    },
    {
      "inputs": [
        {
          "internalType": "bytes4",
          "name": "interfaceId",
          "type": "bytes4"
        }
      ],
      "name": "supportsInterface",
      "outputs": [
        {
          "internalType": "bool",
          "name": "",
          "type": "bool"
        }
      ],
      "stateMutability": "view",
      "type": "function"
    },
    {
      "inputs": [],
      "name": "symbol",
      "outputs": [
        {
          "internalType": "string",
          "name": "",
          "type": "string"
        }
      ],
      "stateMutability": "view",
      "type": "function"
    },
    {
      "inputs": [
        {
          "internalType": "uint256",
          "name": "tokenId",
          "type": "uint256"
        }
      ],
      "name": "tokenURI",
      "outputs": [
        {
          "internalType": "string",
          "name": "",
          "type": "string"
        }
      ],
      "stateMutability": "view",
      "type": "function"
    },
    {
      "inputs": [
        {
          "internalType": "address",
          "name": "from",
          "type": "address"
        },
        {
          "internalType": "address",
          "name": "to",
          "type": "address"
        },
        {
          "internalType": "uint256",
          "name": "tokenId",
          "type": "uint256"
        }
      ],
      "name": "transferFrom",
      "outputs": [],
      "stateMutability": "nonpayable",
      "type": "function"
    },
    {
      "inputs": [
        {
          "internalType": "address",
          "name": "player",
          "type": "address"
        },
        {
          "internalType": "string",
          "name": "tokenURI",
          "type": "string"
        }
      ],
      "name": "awardItem",
      "outputs": [
        {
          "internalType": "uint256",
          "name": "",
          "type": "uint256"
        }
      ],
      "stateMutability": "nonpayable",
      "type": "function"
    }
  ],
  "bytecode": "0x60806040523480156200001157600080fd5b506040518060400160405280600a81526020017f416d657461204e465420000000000000000000000000000000000000000000008152506040518060400160405280600481526020017f414e465400000000000000000000000000000000000000000000000000000000815250816000908051906020019062000096929190620000b8565b508060019080519060200190620000af929190620000b8565b505050620001cd565b828054620000c69062000168565b90600052602060002090601f016020900481019282620000ea576000855562000136565b82601f106200010557805160ff191683800117855562000136565b8280016001018555821562000136579182015b828111156200013557825182559160200191906001019062000118565b5b50905062000145919062000149565b5090565b5b80821115620001645760008160009055506001016200014a565b5090565b600060028204905060018216806200018157607f821691505b602082108114156200019857620001976200019e565b5b50919050565b7f4e487b7100000000000000000000000000000000000000000000000000000000600052602260045260246000fd5b61294f80620001dd6000396000f3fe608060405234801561001057600080fd5b50600436106100f55760003560e01c806370a0823111610097578063b88d4fde11610066578063b88d4fde14610284578063c87b56dd146102a0578063cf378343146102d0578063e985e9c514610300576100f5565b806370a08231146101fc578063902d55a51461022c57806395d89b411461024a578063a22cb46514610268576100f5565b8063095ea7b3116100d3578063095ea7b31461017857806323b872dd1461019457806342842e0e146101b05780636352211e146101cc576100f5565b806301ffc9a7146100fa57806306fdde031461012a578063081812fc14610148575b600080fd5b610114600480360381019061010f9190611bfe565b610330565b6040516101219190611f9b565b60405180910390f35b610132610412565b60405161013f9190611fb6565b60405180910390f35b610162600480360381019061015d9190611c50565b6104a4565b60405161016f9190611f34565b60405180910390f35b610192600480360381019061018d9190611bc2565b6104ea565b005b6101ae60048036038101906101a99190611a68565b610602565b005b6101ca60048036038101906101c59190611a68565b610662565b005b6101e660048036038101906101e19190611c50565b610682565b6040516101f39190611f34565b60405180910390f35b61021660048036038101906102119190611a03565b610734565b6040516102239190612178565b60405180910390f35b6102346107ec565b6040516102419190612178565b60405180910390f35b6102526107f2565b60405161025f9190611fb6565b60405180910390f35b610282600480360381019061027d9190611b32565b610884565b005b61029e60048036038101906102999190611ab7565b61089a565b005b6102ba60048036038101906102b59190611c50565b6108fc565b6040516102c79190611fb6565b60405180910390f35b6102ea60048036038101906102e59190611b6e565b610a0f565b6040516102f79190612178565b60405180910390f35b61031a60048036038101906103159190611a2c565b610a8a565b6040516103279190611f9b565b60405180910390f35b60007f80ac58cd000000000000000000000000000000000000000000000000000000007bffffffffffffffffffffffffffffffffffffffffffffffffffffffff1916827bffffffffffffffffffffffffffffffffffffffffffffffffffffffff191614806103fb57507f5b5e139f000000000000000000000000000000000000000000000000000000007bffffffffffffffffffffffffffffffffffffffffffffffffffffffff1916827bffffffffffffffffffffffffffffffffffffffffffffffffffffffff1916145b8061040b575061040a82610b1e565b5b9050919050565b606060008054610421906123ce565b80601f016020809104026020016040519081016040528092919081815260200182805461044d906123ce565b801561049a5780601f1061046f5761010080835404028352916020019161049a565b820191906000526020600020905b81548152906001019060200180831161047d57829003601f168201915b5050505050905090565b60006104af82610b88565b6004600083815260200190815260200160002060009054906101000a900473ffffffffffffffffffffffffffffffffffffffff169050919050565b60006104f582610682565b90508073ffffffffffffffffffffffffffffffffffffffff168373ffffffffffffffffffffffffffffffffffffffff161415610566576040517f08c379a000000000000000000000000000000000000000000000000000000000815260040161055d90612118565b60405180910390fd5b8073ffffffffffffffffffffffffffffffffffffffff16610585610bd3565b73ffffffffffffffffffffffffffffffffffffffff1614806105b457506105b3816105ae610bd3565b610a8a565b5b6105f3576040517f08c379a00000000000000000000000000000000000000000000000000000000081526004016105ea906120b8565b60405180910390fd5b6105fd8383610bdb565b505050565b61061361060d610bd3565b82610c94565b610652576040517f08c379a000000000000000000000000000000000000000000000000000000000815260040161064990612158565b60405180910390fd5b61065d838383610d29565b505050565b61067d8383836040518060200160405280600081525061089a565b505050565b6000806002600084815260200190815260200160002060009054906101000a900473ffffffffffffffffffffffffffffffffffffffff169050600073ffffffffffffffffffffffffffffffffffffffff168173ffffffffffffffffffffffffffffffffffffffff16141561072b576040517f08c379a0000000000000000000000000000000000000000000000000000000008152600401610722906120f8565b60405180910390fd5b80915050919050565b60008073ffffffffffffffffffffffffffffffffffffffff168273ffffffffffffffffffffffffffffffffffffffff1614156107a5576040517f08c379a000000000000000000000000000000000000000000000000000000000815260040161079c90612078565b60405180910390fd5b600360008373ffffffffffffffffffffffffffffffffffffffff1673ffffffffffffffffffffffffffffffffffffffff168152602001908152602001600020549050919050565b61271081565b606060018054610801906123ce565b80601f016020809104026020016040519081016040528092919081815260200182805461082d906123ce565b801561087a5780601f1061084f5761010080835404028352916020019161087a565b820191906000526020600020905b81548152906001019060200180831161085d57829003601f168201915b5050505050905090565b61089661088f610bd3565b8383610f90565b5050565b6108ab6108a5610bd3565b83610c94565b6108ea576040517f08c379a00000000000000000000000000000000000000000000000000000000081526004016108e190612158565b60405180910390fd5b6108f6848484846110fd565b50505050565b606061090782610b88565b6000600660008481526020019081526020016000208054610927906123ce565b80601f0160208091040260200160405190810160405280929190818152602001828054610953906123ce565b80156109a05780601f10610975576101008083540402835291602001916109a0565b820191906000526020600020905b81548152906001019060200180831161098357829003601f168201915b5050505050905060006109b1611159565b90506000815114156109c7578192505050610a0a565b6000825111156109fc5780826040516020016109e4929190611f10565b60405160208183030381529060405292505050610a0a565b610a0584611170565b925050505b919050565b600080610a1c60076111d8565b90508061271011610a62576040517f08c379a0000000000000000000000000000000000000000000000000000000008152600401610a5990612138565b60405180910390fd5b610a6c84826111e6565b610a7681846113c0565b610a806007611434565b8091505092915050565b6000600560008473ffffffffffffffffffffffffffffffffffffffff1673ffffffffffffffffffffffffffffffffffffffff16815260200190815260200160002060008373ffffffffffffffffffffffffffffffffffffffff1673ffffffffffffffffffffffffffffffffffffffff16815260200190815260200160002060009054906101000a900460ff16905092915050565b60007f01ffc9a7000000000000000000000000000000000000000000000000000000007bffffffffffffffffffffffffffffffffffffffffffffffffffffffff1916827bffffffffffffffffffffffffffffffffffffffffffffffffffffffff1916149050919050565b610b918161144a565b610bd0576040517f08c379a0000000000000000000000000000000000000000000000000000000008152600401610bc7906120f8565b60405180910390fd5b50565b600033905090565b816004600083815260200190815260200160002060006101000a81548173ffffffffffffffffffffffffffffffffffffffff021916908373ffffffffffffffffffffffffffffffffffffffff160217905550808273ffffffffffffffffffffffffffffffffffffffff16610c4e83610682565b73ffffffffffffffffffffffffffffffffffffffff167f8c5be1e5ebec7d5bd14f71427d1e84f3dd0314c0f7b2291e5b200ac8c7c3b92560405160405180910390a45050565b600080610ca083610682565b90508073ffffffffffffffffffffffffffffffffffffffff168473ffffffffffffffffffffffffffffffffffffffff161480610ce25750610ce18185610a8a565b5b80610d2057508373ffffffffffffffffffffffffffffffffffffffff16610d08846104a4565b73ffffffffffffffffffffffffffffffffffffffff16145b91505092915050565b8273ffffffffffffffffffffffffffffffffffffffff16610d4982610682565b73ffffffffffffffffffffffffffffffffffffffff1614610d9f576040517f08c379a0000000000000000000000000000000000000000000000000000000008152600401610d9690611ff8565b60405180910390fd5b600073ffffffffffffffffffffffffffffffffffffffff168273ffffffffffffffffffffffffffffffffffffffff161415610e0f576040517f08c379a0000000000000000000000000000000000000000000000000000000008152600401610e0690612038565b60405180910390fd5b610e1a8383836114b6565b610e25600082610bdb565b6001600360008573ffffffffffffffffffffffffffffffffffffffff1673ffffffffffffffffffffffffffffffffffffffff1681526020019081526020016000206000828254610e7591906122e4565b925050819055506001600360008473ffffffffffffffffffffffffffffffffffffffff1673ffffffffffffffffffffffffffffffffffffffff1681526020019081526020016000206000828254610ecc919061225d565b92505081905550816002600083815260200190815260200160002060006101000a81548173ffffffffffffffffffffffffffffffffffffffff021916908373ffffffffffffffffffffffffffffffffffffffff160217905550808273ffffffffffffffffffffffffffffffffffffffff168473ffffffffffffffffffffffffffffffffffffffff167fddf252ad1be2c89b69c2b068fc378daa952ba7f163c4a11628f55a4df523b3ef60405160405180910390a4610f8b8383836114bb565b505050565b8173ffffffffffffffffffffffffffffffffffffffff168373ffffffffffffffffffffffffffffffffffffffff161415610fff576040517f08c379a0000000000000000000000000000000000000000000000000000000008152600401610ff690612058565b60405180910390fd5b80600560008573ffffffffffffffffffffffffffffffffffffffff1673ffffffffffffffffffffffffffffffffffffffff16815260200190815260200160002060008473ffffffffffffffffffffffffffffffffffffffff1673ffffffffffffffffffffffffffffffffffffffff16815260200190815260200160002060006101000a81548160ff0219169083151502179055508173ffffffffffffffffffffffffffffffffffffffff168373ffffffffffffffffffffffffffffffffffffffff167f17307eab39ab6107e8899845ad3d59bd9653f200f220920489ca2b5937696c31836040516110f09190611f9b565b60405180910390a3505050565b611108848484610d29565b611114848484846114c0565b611153576040517f08c379a000000000000000000000000000000000000000000000000000000000815260040161114a90611fd8565b60405180910390fd5b50505050565b606060405180602001604052806000815250905090565b606061117b82610b88565b6000611185611159565b905060008151116111a557604051806020016040528060008152506111d0565b806111af84611657565b6040516020016111c0929190611f10565b6040516020818303038152906040525b915050919050565b600081600001549050919050565b600073ffffffffffffffffffffffffffffffffffffffff168273ffffffffffffffffffffffffffffffffffffffff161415611256576040517f08c379a000000000000000000000000000000000000000000000000000000000815260040161124d906120d8565b60405180910390fd5b61125f8161144a565b1561129f576040517f08c379a000000000000000000000000000000000000000000000000000000000815260040161129690612018565b60405180910390fd5b6112ab600083836114b6565b6001600360008473ffffffffffffffffffffffffffffffffffffffff1673ffffffffffffffffffffffffffffffffffffffff16815260200190815260200160002060008282546112fb919061225d565b92505081905550816002600083815260200190815260200160002060006101000a81548173ffffffffffffffffffffffffffffffffffffffff021916908373ffffffffffffffffffffffffffffffffffffffff160217905550808273ffffffffffffffffffffffffffffffffffffffff16600073ffffffffffffffffffffffffffffffffffffffff167fddf252ad1be2c89b69c2b068fc378daa952ba7f163c4a11628f55a4df523b3ef60405160405180910390a46113bc600083836114bb565b5050565b6113c98261144a565b611408576040517f08c379a00000000000000000000000000000000000000000000000000000000081526004016113ff90612098565b60405180910390fd5b8060066000848152602001908152602001600020908051906020019061142f929190611827565b505050565b6001816000016000828254019250508190555050565b60008073ffffffffffffffffffffffffffffffffffffffff166002600084815260200190815260200160002060009054906101000a900473ffffffffffffffffffffffffffffffffffffffff1673ffffffffffffffffffffffffffffffffffffffff1614159050919050565b505050565b505050565b60006114e18473ffffffffffffffffffffffffffffffffffffffff16611804565b1561164a578373ffffffffffffffffffffffffffffffffffffffff1663150b7a0261150a610bd3565b8786866040518563ffffffff1660e01b815260040161152c9493929190611f4f565b602060405180830381600087803b15801561154657600080fd5b505af192505050801561157757506040513d601f19601f820116820180604052508101906115749190611c27565b60015b6115fa573d80600081146115a7576040519150601f19603f3d011682016040523d82523d6000602084013e6115ac565b606091505b506000815114156115f2576040517f08c379a00000000000000000000000000000000000000000000000000000000081526004016115e990611fd8565b60405180910390fd5b805181602001fd5b63150b7a0260e01b7bffffffffffffffffffffffffffffffffffffffffffffffffffffffff1916817bffffffffffffffffffffffffffffffffffffffffffffffffffffffff19161491505061164f565b600190505b949350505050565b6060600082141561169f576040518060400160405280600181526020017f300000000000000000000000000000000000000000000000000000000000000081525090506117ff565b600082905060005b600082146116d15780806116ba90612431565b915050600a826116ca91906122b3565b91506116a7565b60008167ffffffffffffffff811115611713577f4e487b7100000000000000000000000000000000000000000000000000000000600052604160045260246000fd5b6040519080825280601f01601f1916602001820160405280156117455781602001600182028036833780820191505090505b5090505b600085146117f85760018261175e91906122e4565b9150600a8561176d919061247a565b6030611779919061225d565b60f81b8183815181106117b5577f4e487b7100000000000000000000000000000000000000000000000000000000600052603260045260246000fd5b60200101907effffffffffffffffffffffffffffffffffffffffffffffffffffffffffffff1916908160001a905350600a856117f191906122b3565b9450611749565b8093505050505b919050565b6000808273ffffffffffffffffffffffffffffffffffffffff163b119050919050565b828054611833906123ce565b90600052602060002090601f016020900481019282611855576000855561189c565b82601f1061186e57805160ff191683800117855561189c565b8280016001018555821561189c579182015b8281111561189b578251825591602001919060010190611880565b5b5090506118a991906118ad565b5090565b5b808211156118c65760008160009055506001016118ae565b5090565b60006118dd6118d8846121b8565b612193565b9050828152602081018484840111156118f557600080fd5b61190084828561238c565b509392505050565b600061191b611916846121e9565b612193565b90508281526020810184848401111561193357600080fd5b61193e84828561238c565b509392505050565b600081359050611955816128bd565b92915050565b60008135905061196a816128d4565b92915050565b60008135905061197f816128eb565b92915050565b600081519050611994816128eb565b92915050565b600082601f8301126119ab57600080fd5b81356119bb8482602086016118ca565b91505092915050565b600082601f8301126119d557600080fd5b81356119e5848260208601611908565b91505092915050565b6000813590506119fd81612902565b92915050565b600060208284031215611a1557600080fd5b6000611a2384828501611946565b91505092915050565b60008060408385031215611a3f57600080fd5b6000611a4d85828601611946565b9250506020611a5e85828601611946565b9150509250929050565b600080600060608486031215611a7d57600080fd5b6000611a8b86828701611946565b9350506020611a9c86828701611946565b9250506040611aad868287016119ee565b9150509250925092565b60008060008060808587031215611acd57600080fd5b6000611adb87828801611946565b9450506020611aec87828801611946565b9350506040611afd878288016119ee565b925050606085013567ffffffffffffffff811115611b1a57600080fd5b611b268782880161199a565b91505092959194509250565b60008060408385031215611b4557600080fd5b6000611b5385828601611946565b9250506020611b648582860161195b565b9150509250929050565b60008060408385031215611b8157600080fd5b6000611b8f85828601611946565b925050602083013567ffffffffffffffff811115611bac57600080fd5b611bb8858286016119c4565b9150509250929050565b60008060408385031215611bd557600080fd5b6000611be385828601611946565b9250506020611bf4858286016119ee565b9150509250929050565b600060208284031215611c1057600080fd5b6000611c1e84828501611970565b91505092915050565b600060208284031215611c3957600080fd5b6000611c4784828501611985565b91505092915050565b600060208284031215611c6257600080fd5b6000611c70848285016119ee565b91505092915050565b611c8281612318565b82525050565b611c918161232a565b82525050565b6000611ca28261221a565b611cac8185612230565b9350611cbc81856020860161239b565b611cc581612567565b840191505092915050565b6000611cdb82612225565b611ce58185612241565b9350611cf581856020860161239b565b611cfe81612567565b840191505092915050565b6000611d1482612225565b611d1e8185612252565b9350611d2e81856020860161239b565b80840191505092915050565b6000611d47603283612241565b9150611d5282612578565b604082019050919050565b6000611d6a602583612241565b9150611d75826125c7565b604082019050919050565b6000611d8d601c83612241565b9150611d9882612616565b602082019050919050565b6000611db0602483612241565b9150611dbb8261263f565b604082019050919050565b6000611dd3601983612241565b9150611dde8261268e565b602082019050919050565b6000611df6602983612241565b9150611e01826126b7565b604082019050919050565b6000611e19602e83612241565b9150611e2482612706565b604082019050919050565b6000611e3c603e83612241565b9150611e4782612755565b604082019050919050565b6000611e5f602083612241565b9150611e6a826127a4565b602082019050919050565b6000611e82601883612241565b9150611e8d826127cd565b602082019050919050565b6000611ea5602183612241565b9150611eb0826127f6565b604082019050919050565b6000611ec8601283612241565b9150611ed382612845565b602082019050919050565b6000611eeb602e83612241565b9150611ef68261286e565b604082019050919050565b611f0a81612382565b82525050565b6000611f1c8285611d09565b9150611f288284611d09565b91508190509392505050565b6000602082019050611f496000830184611c79565b92915050565b6000608082019050611f646000830187611c79565b611f716020830186611c79565b611f7e6040830185611f01565b8181036060830152611f908184611c97565b905095945050505050565b6000602082019050611fb06000830184611c88565b92915050565b60006020820190508181036000830152611fd08184611cd0565b905092915050565b60006020820190508181036000830152611ff181611d3a565b9050919050565b6000602082019050818103600083015261201181611d5d565b9050919050565b6000602082019050818103600083015261203181611d80565b9050919050565b6000602082019050818103600083015261205181611da3565b9050919050565b6000602082019050818103600083015261207181611dc6565b9050919050565b6000602082019050818103600083015261209181611de9565b9050919050565b600060208201905081810360008301526120b181611e0c565b9050919050565b600060208201905081810360008301526120d181611e2f565b9050919050565b600060208201905081810360008301526120f181611e52565b9050919050565b6000602082019050818103600083015261211181611e75565b9050919050565b6000602082019050818103600083015261213181611e98565b9050919050565b6000602082019050818103600083015261215181611ebb565b9050919050565b6000602082019050818103600083015261217181611ede565b9050919050565b600060208201905061218d6000830184611f01565b92915050565b600061219d6121ae565b90506121a98282612400565b919050565b6000604051905090565b600067ffffffffffffffff8211156121d3576121d2612538565b5b6121dc82612567565b9050602081019050919050565b600067ffffffffffffffff82111561220457612203612538565b5b61220d82612567565b9050602081019050919050565b600081519050919050565b600081519050919050565b600082825260208201905092915050565b600082825260208201905092915050565b600081905092915050565b600061226882612382565b915061227383612382565b9250827fffffffffffffffffffffffffffffffffffffffffffffffffffffffffffffffff038211156122a8576122a76124ab565b5b828201905092915050565b60006122be82612382565b91506122c983612382565b9250826122d9576122d86124da565b5b828204905092915050565b60006122ef82612382565b91506122fa83612382565b92508282101561230d5761230c6124ab565b5b828203905092915050565b600061232382612362565b9050919050565b60008115159050919050565b60007fffffffff0000000000000000000000000000000000000000000000000000000082169050919050565b600073ffffffffffffffffffffffffffffffffffffffff82169050919050565b6000819050919050565b82818337600083830152505050565b60005b838110156123b957808201518184015260208101905061239e565b838111156123c8576000848401525b50505050565b600060028204905060018216806123e657607f821691505b602082108114156123fa576123f9612509565b5b50919050565b61240982612567565b810181811067ffffffffffffffff8211171561242857612427612538565b5b80604052505050565b600061243c82612382565b91507fffffffffffffffffffffffffffffffffffffffffffffffffffffffffffffffff82141561246f5761246e6124ab565b5b600182019050919050565b600061248582612382565b915061249083612382565b9250826124a05761249f6124da565b5b828206905092915050565b7f4e487b7100000000000000000000000000000000000000000000000000000000600052601160045260246000fd5b7f4e487b7100000000000000000000000000000000000000000000000000000000600052601260045260246000fd5b7f4e487b7100000000000000000000000000000000000000000000000000000000600052602260045260246000fd5b7f4e487b7100000000000000000000000000000000000000000000000000000000600052604160045260246000fd5b6000601f19601f8301169050919050565b7f4552433732313a207472616e7366657220746f206e6f6e20455243373231526560008201527f63656976657220696d706c656d656e7465720000000000000000000000000000602082015250565b7f4552433732313a207472616e736665722066726f6d20696e636f72726563742060008201527f6f776e6572000000000000000000000000000000000000000000000000000000602082015250565b7f4552433732313a20746f6b656e20616c7265616479206d696e74656400000000600082015250565b7f4552433732313a207472616e7366657220746f20746865207a65726f2061646460008201527f7265737300000000000000000000000000000000000000000000000000000000602082015250565b7f4552433732313a20617070726f766520746f2063616c6c657200000000000000600082015250565b7f4552433732313a2061646472657373207a65726f206973206e6f74206120766160008201527f6c6964206f776e65720000000000000000000000000000000000000000000000602082015250565b7f45524337323155524953746f726167653a2055524920736574206f66206e6f6e60008201527f6578697374656e7420746f6b656e000000000000000000000000000000000000602082015250565b7f4552433732313a20617070726f76652063616c6c6572206973206e6f7420746f60008201527f6b656e206f776e6572206e6f7220617070726f76656420666f7220616c6c0000602082015250565b7f4552433732313a206d696e7420746f20746865207a65726f2061646472657373600082015250565b7f4552433732313a20696e76616c696420746f6b656e2049440000000000000000600082015250565b7f4552433732313a20617070726f76616c20746f2063757272656e74206f776e6560008201527f7200000000000000000000000000000000000000000000000000000000000000602082015250565b7f4d617820737570706c7920726561636865640000000000000000000000000000600082015250565b7f4552433732313a2063616c6c6572206973206e6f7420746f6b656e206f776e6560008201527f72206e6f7220617070726f766564000000000000000000000000000000000000602082015250565b6128c681612318565b81146128d157600080fd5b50565b6128dd8161232a565b81146128e857600080fd5b50565b6128f481612336565b81146128ff57600080fd5b50565b61290b81612382565b811461291657600080fd5b5056fea2646970667358221220bf0482746d36965dde32f9f0fc0da7b533573187f9038a5762c9237f88c7da5564736f6c63430008010033",
  "immutableReferences": {},
  "source": "// SPDX-License-Identifier: MIT\npragma solidity ^0.8.0;\n\nimport \"@openzeppelin/contracts/token/ERC721/extensions/ERC721URIStorage.sol\";\nimport \"@openzeppelin/contracts/utils/Counters.sol\";\n\ncontract NFTItem is ERC721URIStorage {\n    using Counters for Counters.Counter;\n    Counters.Counter private _tokenIds;\n    uint256 public constant TOTAL_SUPPLY = 10000;\n\n    constructor() ERC721(\"Ameta NFT \", \"ANFT\") {}\n\n    function awardItem(address player, string memory tokenURI)\n        public\n        returns (uint256)\n    {\n        uint256 newItemId = _tokenIds.current();\n        require(TOTAL_SUPPLY > newItemId, \"Max supply reached\");\n        _mint(player, newItemId);\n        _setTokenURI(newItemId, tokenURI);\n        _tokenIds.increment();\n        return newItemId;\n    }\n}\n",
  "sourcePath": "/Users/freestyle/Dev/AWPlus/Project/Ameta_smc/contracts/NFTItem.sol",
  "compiler": {
    "name": "solc",
    "version": "0.8.1+commit.df193b15.Emscripten.clang"
  },
  "schemaVersion": "3.4.8",
  "updatedAt": "2022-08-17T10:29:35.172Z",
  "devdoc": {
    "kind": "dev",
    "methods": {
      "approve(address,uint256)": {
        "details": "See {IERC721-approve}."
      },
      "balanceOf(address)": {
        "details": "See {IERC721-balanceOf}."
      },
      "getApproved(uint256)": {
        "details": "See {IERC721-getApproved}."
      },
      "isApprovedForAll(address,address)": {
        "details": "See {IERC721-isApprovedForAll}."
      },
      "name()": {
        "details": "See {IERC721Metadata-name}."
      },
      "ownerOf(uint256)": {
        "details": "See {IERC721-ownerOf}."
      },
      "safeTransferFrom(address,address,uint256)": {
        "details": "See {IERC721-safeTransferFrom}."
      },
      "safeTransferFrom(address,address,uint256,bytes)": {
        "details": "See {IERC721-safeTransferFrom}."
      },
      "setApprovalForAll(address,bool)": {
        "details": "See {IERC721-setApprovalForAll}."
      },
      "supportsInterface(bytes4)": {
        "details": "See {IERC165-supportsInterface}."
      },
      "symbol()": {
        "details": "See {IERC721Metadata-symbol}."
      },
      "tokenURI(uint256)": {
        "details": "See {IERC721Metadata-tokenURI}."
      },
      "transferFrom(address,address,uint256)": {
        "details": "See {IERC721-transferFrom}."
      }
    },
    "version": 1
  },
  "userdoc": {
    "kind": "user",
    "methods": {},
    "version": 1
  }
}